{
  "_format": "hh-sol-artifact-1",
  "contractName": "VultureSwapCompensation",
  "sourceName": "contracts/VultureSwapCompensation.sol",
  "abi": [
    {
      "inputs": [
        {
          "internalType": "contract IERC20",
          "name": "_usdc",
          "type": "address"
        }
      ],
      "stateMutability": "nonpayable",
      "type": "constructor"
    },
    {
      "anonymous": false,
      "inputs": [
        {
          "indexed": false,
          "internalType": "contract IERC20",
          "name": "token",
          "type": "address"
        },
        {
          "indexed": false,
          "internalType": "uint256",
          "name": "amount",
          "type": "uint256"
        }
      ],
      "name": "AdminWithdrawal",
      "type": "event"
    },
    {
      "anonymous": false,
      "inputs": [
        {
          "indexed": false,
          "internalType": "address",
          "name": "user",
          "type": "address"
        },
        {
          "indexed": false,
          "internalType": "uint256",
          "name": "amount",
          "type": "uint256"
        }
      ],
      "name": "Claimed",
      "type": "event"
    },
    {
      "anonymous": false,
      "inputs": [
        {
          "indexed": true,
          "internalType": "address",
          "name": "previousOwner",
          "type": "address"
        },
        {
          "indexed": true,
          "internalType": "address",
          "name": "newOwner",
          "type": "address"
        }
      ],
      "name": "OwnershipTransferred",
      "type": "event"
    },
    {
      "anonymous": false,
      "inputs": [
        {
          "indexed": false,
          "internalType": "address",
          "name": "user",
          "type": "address"
        },
        {
          "indexed": false,
          "internalType": "uint256",
          "name": "amount",
          "type": "uint256"
        }
      ],
      "name": "Registered",
      "type": "event"
    },
    {
      "inputs": [
        {
          "internalType": "address",
          "name": "",
          "type": "address"
        }
      ],
      "name": "claimed",
      "outputs": [
        {
          "internalType": "bool",
          "name": "",
          "type": "bool"
        }
      ],
      "stateMutability": "view",
      "type": "function"
    },
    {
      "inputs": [],
      "name": "cursor",
      "outputs": [
        {
          "internalType": "uint256",
          "name": "",
          "type": "uint256"
        }
      ],
      "stateMutability": "view",
      "type": "function"
    },
    {
      "inputs": [
        {
          "internalType": "uint256",
          "name": "numUsers",
          "type": "uint256"
        }
      ],
      "name": "distribute",
      "outputs": [],
      "stateMutability": "nonpayable",
      "type": "function"
    },
    {
      "inputs": [],
      "name": "name",
      "outputs": [
        {
          "internalType": "string",
          "name": "",
          "type": "string"
        }
      ],
      "stateMutability": "view",
      "type": "function"
    },
    {
      "inputs": [],
      "name": "owner",
      "outputs": [
        {
          "internalType": "address",
          "name": "",
          "type": "address"
        }
      ],
      "stateMutability": "view",
      "type": "function"
    },
    {
      "inputs": [
        {
          "internalType": "address[]",
          "name": "usersToRegister",
          "type": "address[]"
        },
        {
          "internalType": "uint256[]",
          "name": "compensationAmounts",
          "type": "uint256[]"
        }
      ],
      "name": "registerUsers",
      "outputs": [],
      "stateMutability": "nonpayable",
      "type": "function"
    },
    {
      "inputs": [],
      "name": "renounceOwnership",
      "outputs": [],
      "stateMutability": "nonpayable",
      "type": "function"
    },
    {
      "inputs": [],
      "name": "symbol",
      "outputs": [
        {
          "internalType": "string",
          "name": "",
          "type": "string"
        }
      ],
      "stateMutability": "view",
      "type": "function"
    },
    {
      "inputs": [],
      "name": "totalCompensation",
      "outputs": [
        {
          "internalType": "uint256",
          "name": "",
          "type": "uint256"
        }
      ],
      "stateMutability": "view",
      "type": "function"
    },
    {
      "inputs": [
        {
          "internalType": "address",
          "name": "newOwner",
          "type": "address"
        }
      ],
      "name": "transferOwnership",
      "outputs": [],
      "stateMutability": "nonpayable",
      "type": "function"
    },
    {
      "inputs": [],
      "name": "usdc",
      "outputs": [
        {
          "internalType": "contract IERC20",
          "name": "",
          "type": "address"
        }
      ],
      "stateMutability": "view",
      "type": "function"
    },
    {
      "inputs": [
        {
          "internalType": "address",
          "name": "",
          "type": "address"
        }
      ],
      "name": "userCompensation",
      "outputs": [
        {
          "internalType": "uint256",
          "name": "",
          "type": "uint256"
        }
      ],
      "stateMutability": "view",
      "type": "function"
    },
    {
      "inputs": [
        {
          "internalType": "uint256",
          "name": "",
          "type": "uint256"
        }
      ],
      "name": "users",
      "outputs": [
        {
          "internalType": "address",
          "name": "",
          "type": "address"
        }
      ],
      "stateMutability": "view",
      "type": "function"
    },
    {
      "inputs": [],
      "name": "usersLength",
      "outputs": [
        {
          "internalType": "uint256",
          "name": "",
          "type": "uint256"
        }
      ],
      "stateMutability": "view",
      "type": "function"
    },
    {
      "inputs": [
        {
          "internalType": "contract IERC20",
          "name": "token",
          "type": "address"
        }
      ],
      "name": "withdraw",
      "outputs": [],
      "stateMutability": "nonpayable",
      "type": "function"
    }
  ],
  "bytecode": "0x60a06040523480156200001157600080fd5b5060405162001ea838038062001ea8833981810160405281019062000037919062000178565b620000576200004b6200009560201b60201c565b6200009d60201b60201c565b8073ffffffffffffffffffffffffffffffffffffffff1660808173ffffffffffffffffffffffffffffffffffffffff1660601b815250505062000206565b600033905090565b60008060009054906101000a900473ffffffffffffffffffffffffffffffffffffffff169050816000806101000a81548173ffffffffffffffffffffffffffffffffffffffff021916908373ffffffffffffffffffffffffffffffffffffffff1602179055508173ffffffffffffffffffffffffffffffffffffffff168173ffffffffffffffffffffffffffffffffffffffff167f8be0079c531659141344cd1fd0a4f28419497f9722a3daafe3b4186f6b6457e060405160405180910390a35050565b6000815190506200017281620001ec565b92915050565b6000602082840312156200018b57600080fd5b60006200019b8482850162000161565b91505092915050565b6000620001b182620001cc565b9050919050565b6000620001c582620001a4565b9050919050565b600073ffffffffffffffffffffffffffffffffffffffff82169050919050565b620001f781620001b8565b81146200020357600080fd5b50565b60805160601c611c7c6200022c600039600081816103560152610e230152611c7c6000f3fe608060405234801561001057600080fd5b50600436106100f55760003560e01c806384cba6da11610097578063c884ef8311610066578063c884ef831461024e578063eab11db11461027e578063f2fde38b1461029c578063f3e9bc28146102b8576100f5565b806384cba6da146101da5780638da5cb5b146101f657806391c05b0b1461021457806395d89b4114610230576100f5565b80633e413bee116100d35780633e413bee146101665780634f2193e11461018457806351cff8d9146101b4578063715018a6146101d0576100f5565b806306fdde03146100fa578063365b98b21461011857806336a0b9ef14610148575b600080fd5b6101026102d6565b60405161010f919061166b565b60405180910390f35b610132600480360381019061012d9190611384565b61030f565b60405161013f91906115f1565b60405180910390f35b61015061034e565b60405161015d91906117cd565b60405180910390f35b61016e610354565b60405161017b9190611650565b60405180910390f35b61019e60048036038101906101999190611294565b610378565b6040516101ab91906117cd565b60405180910390f35b6101ce60048036038101906101c9919061135b565b610390565b005b6101d8610569565b005b6101f460048036038101906101ef91906112bd565b6105f1565b005b6101fe610773565b60405161020b91906115f1565b60405180910390f35b61022e60048036038101906102299190611384565b61079c565b005b610238610902565b604051610245919061166b565b60405180910390f35b61026860048036038101906102639190611294565b61093b565b6040516102759190611635565b60405180910390f35b61028661095b565b60405161029391906117cd565b60405180910390f35b6102b660048036038101906102b19190611294565b610968565b005b6102c0610a60565b6040516102cd91906117cd565b60405180910390f35b6040518060400160405280602081526020017f56756c7475726553776170204578706c6f697420436f6d70656e736174696f6e81525081565b6003818154811061031f57600080fd5b906000526020600020016000915054906101000a900473ffffffffffffffffffffffffffffffffffffffff1681565b60055481565b7f000000000000000000000000000000000000000000000000000000000000000081565b60026020528060005260406000206000915090505481565b610398610a66565b73ffffffffffffffffffffffffffffffffffffffff166103b6610773565b73ffffffffffffffffffffffffffffffffffffffff161461040c576040517f08c379a00000000000000000000000000000000000000000000000000000000081526004016104039061174d565b60405180910390fd5b60008173ffffffffffffffffffffffffffffffffffffffff166370a08231306040518263ffffffff1660e01b815260040161044791906115f1565b60206040518083038186803b15801561045f57600080fd5b505afa158015610473573d6000803e3d6000fd5b505050506040513d601f19601f8201168201806040525081019061049791906113ad565b90508173ffffffffffffffffffffffffffffffffffffffff1663a9059cbb33836040518363ffffffff1660e01b81526004016104d492919061160c565b602060405180830381600087803b1580156104ee57600080fd5b505af1158015610502573d6000803e3d6000fd5b505050506040513d601f19601f820116820180604052508101906105269190611332565b610565576040517f08c379a000000000000000000000000000000000000000000000000000000000815260040161055c906117ad565b60405180910390fd5b5050565b610571610a66565b73ffffffffffffffffffffffffffffffffffffffff1661058f610773565b73ffffffffffffffffffffffffffffffffffffffff16146105e5576040517f08c379a00000000000000000000000000000000000000000000000000000000081526004016105dc9061174d565b60405180910390fd5b6105ef6000610a6e565b565b6105f9610a66565b73ffffffffffffffffffffffffffffffffffffffff16610617610773565b73ffffffffffffffffffffffffffffffffffffffff161461066d576040517f08c379a00000000000000000000000000000000000000000000000000000000081526004016106649061174d565b60405180910390fd5b8181905084849050146106b5576040517f08c379a00000000000000000000000000000000000000000000000000000000081526004016106ac9061168d565b60405180910390fd5b60005b8484905081101561076c576107598585838181106106ff577f4e487b7100000000000000000000000000000000000000000000000000000000600052603260045260246000fd5b90506020020160208101906107149190611294565b84848481811061074d577f4e487b7100000000000000000000000000000000000000000000000000000000600052603260045260246000fd5b90506020020135610b32565b808061076490611955565b9150506106b8565b5050505050565b60008060009054906101000a900473ffffffffffffffffffffffffffffffffffffffff16905090565b6107a4610a66565b73ffffffffffffffffffffffffffffffffffffffff166107c2610773565b73ffffffffffffffffffffffffffffffffffffffff1614610818576040517f08c379a000000000000000000000000000000000000000000000000000000000815260040161080f9061174d565b60405180910390fd5b6003805490508160055461082c919061181a565b1115610848576005546003805490506108459190611870565b90505b600060055490505b8160055461085e919061181a565b8110156108e5576108d2600382815481106108a2577f4e487b7100000000000000000000000000000000000000000000000000000000600052603260045260246000fd5b9060005260206000200160009054906101000a900473ffffffffffffffffffffffffffffffffffffffff16610cf4565b80806108dd90611955565b915050610850565b5080600560008282546108f8919061181a565b9250508190555050565b6040518060400160405280600b81526020017f56554c545552455357415000000000000000000000000000000000000000000081525081565b60016020528060005260406000206000915054906101000a900460ff1681565b6000600380549050905090565b610970610a66565b73ffffffffffffffffffffffffffffffffffffffff1661098e610773565b73ffffffffffffffffffffffffffffffffffffffff16146109e4576040517f08c379a00000000000000000000000000000000000000000000000000000000081526004016109db9061174d565b60405180910390fd5b600073ffffffffffffffffffffffffffffffffffffffff168173ffffffffffffffffffffffffffffffffffffffff161415610a54576040517f08c379a0000000000000000000000000000000000000000000000000000000008152600401610a4b906116ad565b60405180910390fd5b610a5d81610a6e565b50565b60045481565b600033905090565b60008060009054906101000a900473ffffffffffffffffffffffffffffffffffffffff169050816000806101000a81548173ffffffffffffffffffffffffffffffffffffffff021916908373ffffffffffffffffffffffffffffffffffffffff1602179055508173ffffffffffffffffffffffffffffffffffffffff168173ffffffffffffffffffffffffffffffffffffffff167f8be0079c531659141344cd1fd0a4f28419497f9722a3daafe3b4186f6b6457e060405160405180910390a35050565b60008111610b75576040517f08c379a0000000000000000000000000000000000000000000000000000000008152600401610b6c906116ed565b60405180910390fd5b6000600260008473ffffffffffffffffffffffffffffffffffffffff1673ffffffffffffffffffffffffffffffffffffffff1681526020019081526020016000205414610bf7576040517f08c379a0000000000000000000000000000000000000000000000000000000008152600401610bee906116cd565b60405180910390fd5b80600260008473ffffffffffffffffffffffffffffffffffffffff1673ffffffffffffffffffffffffffffffffffffffff168152602001908152602001600020819055506003829080600181540180825580915050600190039060005260206000200160009091909190916101000a81548173ffffffffffffffffffffffffffffffffffffffff021916908373ffffffffffffffffffffffffffffffffffffffff1602179055508060046000828254610cb0919061181a565b925050819055507f6f3bf3fa84e4763a43b3d23f9d79be242d6d5c834941ff4c1111b67469e1150c8282604051610ce892919061160c565b60405180910390a15050565b600160008273ffffffffffffffffffffffffffffffffffffffff1673ffffffffffffffffffffffffffffffffffffffff16815260200190815260200160002060009054906101000a900460ff1615610d81576040517f08c379a0000000000000000000000000000000000000000000000000000000008152600401610d789061172d565b60405180910390fd5b60018060008373ffffffffffffffffffffffffffffffffffffffff1673ffffffffffffffffffffffffffffffffffffffff16815260200190815260200160002060006101000a81548160ff0219169083151502179055506000600260008373ffffffffffffffffffffffffffffffffffffffff1673ffffffffffffffffffffffffffffffffffffffff168152602001908152602001600020549050610e6782827f000000000000000000000000000000000000000000000000000000000000000073ffffffffffffffffffffffffffffffffffffffff16610ea49092919063ffffffff16565b7fd8138f8a3f377c5259ca548e70e4c2de94f129f5a11036a15b69513cba2b426a8282604051610e9892919061160c565b60405180910390a15050565b610f258363a9059cbb60e01b8484604051602401610ec392919061160c565b604051602081830303815290604052907bffffffffffffffffffffffffffffffffffffffffffffffffffffffff19166020820180517bffffffffffffffffffffffffffffffffffffffffffffffffffffffff8381831617835250505050610f2a565b505050565b6000610f8c826040518060400160405280602081526020017f5361666545524332303a206c6f772d6c6576656c2063616c6c206661696c65648152508573ffffffffffffffffffffffffffffffffffffffff16610ff19092919063ffffffff16565b9050600081511115610fec5780806020019051810190610fac9190611332565b610feb576040517f08c379a0000000000000000000000000000000000000000000000000000000008152600401610fe29061178d565b60405180910390fd5b5b505050565b60606110008484600085611009565b90509392505050565b60608247101561104e576040517f08c379a00000000000000000000000000000000000000000000000000000000081526004016110459061170d565b60405180910390fd5b6110578561111d565b611096576040517f08c379a000000000000000000000000000000000000000000000000000000000815260040161108d9061176d565b60405180910390fd5b6000808673ffffffffffffffffffffffffffffffffffffffff1685876040516110bf91906115da565b60006040518083038185875af1925050503d80600081146110fc576040519150601f19603f3d011682016040523d82523d6000602084013e611101565b606091505b5091509150611111828286611130565b92505050949350505050565b600080823b905060008111915050919050565b6060831561114057829050611190565b6000835111156111535782518084602001fd5b816040517f08c379a0000000000000000000000000000000000000000000000000000000008152600401611187919061166b565b60405180910390fd5b9392505050565b6000813590506111a681611bea565b92915050565b60008083601f8401126111be57600080fd5b8235905067ffffffffffffffff8111156111d757600080fd5b6020830191508360208202830111156111ef57600080fd5b9250929050565b60008083601f84011261120857600080fd5b8235905067ffffffffffffffff81111561122157600080fd5b60208301915083602082028301111561123957600080fd5b9250929050565b60008151905061124f81611c01565b92915050565b60008135905061126481611c18565b92915050565b60008135905061127981611c2f565b92915050565b60008151905061128e81611c2f565b92915050565b6000602082840312156112a657600080fd5b60006112b484828501611197565b91505092915050565b600080600080604085870312156112d357600080fd5b600085013567ffffffffffffffff8111156112ed57600080fd5b6112f9878288016111ac565b9450945050602085013567ffffffffffffffff81111561131857600080fd5b611324878288016111f6565b925092505092959194509250565b60006020828403121561134457600080fd5b600061135284828501611240565b91505092915050565b60006020828403121561136d57600080fd5b600061137b84828501611255565b91505092915050565b60006020828403121561139657600080fd5b60006113a48482850161126a565b91505092915050565b6000602082840312156113bf57600080fd5b60006113cd8482850161127f565b91505092915050565b6113df816118a4565b82525050565b6113ee816118b6565b82525050565b60006113ff826117e8565b61140981856117fe565b9350611419818560208601611922565b80840191505092915050565b61142e816118fe565b82525050565b600061143f826117f3565b6114498185611809565b9350611459818560208601611922565b611462816119cd565b840191505092915050565b600061147a600e83611809565b9150611485826119de565b602082019050919050565b600061149d602683611809565b91506114a882611a07565b604082019050919050565b60006114c0601283611809565b91506114cb82611a56565b602082019050919050565b60006114e3600b83611809565b91506114ee82611a7f565b602082019050919050565b6000611506602683611809565b915061151182611aa8565b604082019050919050565b6000611529600f83611809565b915061153482611af7565b602082019050919050565b600061154c602083611809565b915061155782611b20565b602082019050919050565b600061156f601d83611809565b915061157a82611b49565b602082019050919050565b6000611592602a83611809565b915061159d82611b72565b604082019050919050565b60006115b5601883611809565b91506115c082611bc1565b602082019050919050565b6115d4816118f4565b82525050565b60006115e682846113f4565b915081905092915050565b600060208201905061160660008301846113d6565b92915050565b600060408201905061162160008301856113d6565b61162e60208301846115cb565b9392505050565b600060208201905061164a60008301846113e5565b92915050565b60006020820190506116656000830184611425565b92915050565b600060208201905081810360008301526116858184611434565b905092915050565b600060208201905081810360008301526116a68161146d565b9050919050565b600060208201905081810360008301526116c681611490565b9050919050565b600060208201905081810360008301526116e6816114b3565b9050919050565b60006020820190508181036000830152611706816114d6565b9050919050565b60006020820190508181036000830152611726816114f9565b9050919050565b600060208201905081810360008301526117468161151c565b9050919050565b600060208201905081810360008301526117668161153f565b9050919050565b6000602082019050818103600083015261178681611562565b9050919050565b600060208201905081810360008301526117a681611585565b9050919050565b600060208201905081810360008301526117c6816115a8565b9050919050565b60006020820190506117e260008301846115cb565b92915050565b600081519050919050565b600081519050919050565b600081905092915050565b600082825260208201905092915050565b6000611825826118f4565b9150611830836118f4565b9250827fffffffffffffffffffffffffffffffffffffffffffffffffffffffffffffffff038211156118655761186461199e565b5b828201905092915050565b600061187b826118f4565b9150611886836118f4565b9250828210156118995761189861199e565b5b828203905092915050565b60006118af826118d4565b9050919050565b60008115159050919050565b60006118cd826118a4565b9050919050565b600073ffffffffffffffffffffffffffffffffffffffff82169050919050565b6000819050919050565b600061190982611910565b9050919050565b600061191b826118d4565b9050919050565b60005b83811015611940578082015181840152602081019050611925565b8381111561194f576000848401525b50505050565b6000611960826118f4565b91507fffffffffffffffffffffffffffffffffffffffffffffffffffffffffffffffff8214156119935761199261199e565b5b600182019050919050565b7f4e487b7100000000000000000000000000000000000000000000000000000000600052601160045260246000fd5b6000601f19601f8301169050919050565b7f416d6f756e747320646966666572000000000000000000000000000000000000600082015250565b7f4f776e61626c653a206e6577206f776e657220697320746865207a65726f206160008201527f6464726573730000000000000000000000000000000000000000000000000000602082015250565b7f416c726561647920726567697374657265640000000000000000000000000000600082015250565b7f5a65726f20616d6f756e74000000000000000000000000000000000000000000600082015250565b7f416464726573733a20696e73756666696369656e742062616c616e636520666f60008201527f722063616c6c0000000000000000000000000000000000000000000000000000602082015250565b7f416c726561647920636c61696d65640000000000000000000000000000000000600082015250565b7f4f776e61626c653a2063616c6c6572206973206e6f7420746865206f776e6572600082015250565b7f416464726573733a2063616c6c20746f206e6f6e2d636f6e7472616374000000600082015250565b7f5361666545524332303a204552433230206f7065726174696f6e20646964206e60008201527f6f74207375636365656400000000000000000000000000000000000000000000602082015250565b7f4661696c656420746f20776974686472617720746f6b656e0000000000000000600082015250565b611bf3816118a4565b8114611bfe57600080fd5b50565b611c0a816118b6565b8114611c1557600080fd5b50565b611c21816118c2565b8114611c2c57600080fd5b50565b611c38816118f4565b8114611c4357600080fd5b5056fea264697066735822122044ace8ec2b10a532193adb1c5e9e8f41c29b71b749fc270e8873d6152ceffb8e64736f6c63430008040033",
  "linkReferences": {},
  "deployedLinkReferences": {}
}